{
  "contractName": "Proxy",
  "abi": [
    {
      "inputs": [
        {
          "internalType": "address",
          "name": "_currentAddress",
          "type": "address"
        }
      ],
      "stateMutability": "nonpayable",
      "type": "constructor"
    },
    {
      "stateMutability": "payable",
      "type": "fallback",
      "payable": true
    },
    {
      "inputs": [],
      "name": "_initialized",
      "outputs": [
        {
          "internalType": "bool",
          "name": "",
          "type": "bool"
        }
      ],
      "stateMutability": "view",
      "type": "function",
      "constant": true
    },
    {
      "inputs": [],
      "name": "owner",
      "outputs": [
        {
          "internalType": "address",
          "name": "",
          "type": "address"
        }
      ],
      "stateMutability": "view",
      "type": "function",
      "constant": true
    },
    {
      "stateMutability": "payable",
      "type": "receive",
      "payable": true
    },
    {
      "inputs": [
        {
          "internalType": "address",
          "name": "_newAddress",
          "type": "address"
        }
      ],
      "name": "upgrade",
      "outputs": [],
      "stateMutability": "nonpayable",
      "type": "function"
    }
  ],
  "bytecode": "0x608060405234801561001057600080fd5b50604051610448380380610448833981810160405281019061003291906100dc565b80600660006101000a81548173ffffffffffffffffffffffffffffffffffffffff021916908373ffffffffffffffffffffffffffffffffffffffff16021790555050610109565b600080fd5b600073ffffffffffffffffffffffffffffffffffffffff82169050919050565b60006100a98261007e565b9050919050565b6100b98161009e565b81146100c457600080fd5b50565b6000815190506100d6816100b0565b92915050565b6000602082840312156100f2576100f1610079565b5b6000610100848285016100c7565b91505092915050565b610330806101186000396000f3fe6080604052600436106100385760003560e01c80630900f0101461010e5780633072cf60146101375780638da5cb5b146101625761003f565b3661003f57005b6000600660009054906101000a900473ffffffffffffffffffffffffffffffffffffffff169050600073ffffffffffffffffffffffffffffffffffffffff168173ffffffffffffffffffffffffffffffffffffffff160361009f57600080fd5b600080368080601f016020809104026020016040519081016040528093929190818152602001838380828437600081840152601f19601f820116905080830192505050505050509050600080825160208401855af43d604051816000823e826000811461010a578282f35b8282fd5b34801561011a57600080fd5b506101356004803603810190610130919061026d565b61018d565b005b34801561014357600080fd5b5061014c6101d1565b60405161015991906102b5565b60405180910390f35b34801561016e57600080fd5b506101776101e4565b60405161018491906102df565b60405180910390f35b80600660006101000a81548173ffffffffffffffffffffffffffffffffffffffff021916908373ffffffffffffffffffffffffffffffffffffffff16021790555050565b600560149054906101000a900460ff1681565b600560009054906101000a900473ffffffffffffffffffffffffffffffffffffffff1681565b600080fd5b600073ffffffffffffffffffffffffffffffffffffffff82169050919050565b600061023a8261020f565b9050919050565b61024a8161022f565b811461025557600080fd5b50565b60008135905061026781610241565b92915050565b6000602082840312156102835761028261020a565b5b600061029184828501610258565b91505092915050565b60008115159050919050565b6102af8161029a565b82525050565b60006020820190506102ca60008301846102a6565b92915050565b6102d98161022f565b82525050565b60006020820190506102f460008301846102d0565b9291505056fea264697066735822122098f645f1ebf14e3858abd43b86e335dd080bb0aa7086e837bd3bbe8c44cbe84564736f6c634300080d0033",
  "immutableReferences": {},
  "source": "// SPDX-License-Identifier: MIT\npragma solidity ^0.8.13;\n\nimport \"./Storage.sol\";\n\ncontract Proxy is Storage{\n    address currentAddress;\n\n    constructor(address _currentAddress){\n        currentAddress = _currentAddress;\n    }\n\n    function upgrade(address _newAddress)public{\n        currentAddress = _newAddress;\n    }\n    \n    //REDIRECT to currentAddress\n    fallback() external payable{\n        address implementation = currentAddress;\n        require(implementation != address(0));\n        bytes memory data = msg.data;\n\n        assembly {\n            let result := delegatecall(gas(), implementation, add(data, 0x20), mload(data), 0, 0)\n            let size := returndatasize()\n            let ptr := mload(0x40)\n            returndatacopy(ptr, 0, size)\n            switch result\n            case 0 {revert(ptr, size)}\n            default {return(ptr, size)}\n        }\n    }\n    \n    receive() external payable{\n\n    }\n}",
  "sourcePath": "/Users/ivanlieskov/Desktop/proxyContract/contracts/Proxy.sol",
  "compiler": {
    "name": "solc",
    "version": "0.8.13+commit.abaa5c0e.Emscripten.clang"
  },
  "schemaVersion": "3.4.7",
  "updatedAt": "2022-05-17T15:50:12.298Z",
  "networkType": "ethereum",
  "devdoc": {
    "kind": "dev",
    "methods": {},
    "version": 1
  },
  "userdoc": {
    "kind": "user",
    "methods": {},
    "version": 1
  }
}